:100000000C9434000C943E000C943E000C943E0082
:100010000C943E000C943E000C943E000C943E0068
:100020000C943E000C943E000C943E000C943E0058
:100030000C943E000C943E000C943E000C943E0048
:100040000C943E000C943E000C943E000C943E0038
:100050000C943E000C943E000C943E000C943E0028
:100060000C943E000C943E0011241FBECFEFD8E04C
:10007000DEBFCDBF0E9466000C946F010C9400009F
:100080008AB18F638AB9089580E480937C00EAE79F
:10009000F0E087E08083808180688083089590917C
:1000A0007C008770987F892B80937C0080917A00F8
:1000B000806480937A0080917A0086FF06C0209148
:1000C000780030917900C901089508956F927F9268
:1000D0008F929F92AF92BF92CF92DF92EF92FF9258
:1000E0001F93DF93CF93CDB7DEB72C970FB6F8945D
:1000F000DEBF0FBECDBF8AB18F638AB980E4809323
:100100007C0087E080937A0080917A0080688093F9
:100110007A005A9A59985C9A5B98CC24DD244E0157
:100120000894811C911C90E2A92E9EE4B92E80E9CE
:10013000682E81E0782E740110E0812F0E944F001C
:10014000F701819391937F011F5F1630B1F72981E9
:100150003A81F1E02C323F0730F48B859C858E5E2E
:10016000924008F4AAC02E55314008F489C08B850E
:100170009C858255934008F483C00894C11CD11C0F
:10018000F3E0CF16D10409F03BC02FC0740110E09A
:10019000812F0E944F00F701819391937F011F5F90
:1001A0001630B1F789819A818D52914030F08B855C
:1001B0009C858152934020F015C05D9A589802C0EA
:1001C000589A5D981A8219821C821B821E821D8297
:1001D00018861F821A8619861C861B86C501019700
:1001E000F1F703C0589A5D9AEDCF89819A818C52BC
:1001F000914060F68B859C858052934038F60DC007
:10020000F4E0CF16D1044CF058985D9888E893E15B
:10021000F3013197F1F70197D9F789819A818C52CF
:10022000914088F18B859C858052934058F42BC077
:10023000812F0E944F00F701819391937F011F5FEF
:100240001630B1F789819A818C529140E0F08B850C
:100250009C8580529340B8F01A8219821C821B82BE
:100260001E821D8218861F821A8619861C861B868E
:10027000C5010197F1F7589A5D9A740110E0D8CF43
:10028000C114D104E1F08B819C818C52914028F4FF
:1002900089819A818C52914018F05D9A58980FC0CC
:1002A00089859A858059914028F48B859C85805258
:1002B000934028F0589A5D9802C0589A5D9A1A8225
:1002C00019821C821B821E821D8218861F821A863A
:1002D00019861C861B86C5010197F1F72CCFF8946F
:0202E000FFCF4E
:00000001FF
